{
  "_format": "hh-sol-artifact-1",
  "contractName": "Token",
  "sourceName": "contracts/Token.sol",
  "abi": [
    {
      "inputs": [],
      "stateMutability": "nonpayable",
      "type": "constructor"
    },
    {
      "anonymous": false,
      "inputs": [
        {
          "indexed": true,
          "internalType": "address",
          "name": "owner",
          "type": "address"
        },
        {
          "indexed": true,
          "internalType": "address",
          "name": "spender",
          "type": "address"
        },
        {
          "indexed": false,
          "internalType": "uint256",
          "name": "value",
          "type": "uint256"
        }
      ],
      "name": "Approval",
      "type": "event"
    },
    {
      "anonymous": false,
      "inputs": [
        {
          "indexed": true,
          "internalType": "address",
          "name": "previousOwner",
          "type": "address"
        },
        {
          "indexed": true,
          "internalType": "address",
          "name": "newOwner",
          "type": "address"
        }
      ],
      "name": "OwnershipTransferred",
      "type": "event"
    },
    {
      "anonymous": false,
      "inputs": [
        {
          "indexed": true,
          "internalType": "address",
          "name": "from",
          "type": "address"
        },
        {
          "indexed": true,
          "internalType": "address",
          "name": "to",
          "type": "address"
        },
        {
          "indexed": false,
          "internalType": "uint256",
          "name": "value",
          "type": "uint256"
        }
      ],
      "name": "Transfer",
      "type": "event"
    },
    {
      "inputs": [
        {
          "internalType": "address",
          "name": "owner",
          "type": "address"
        },
        {
          "internalType": "address",
          "name": "spender",
          "type": "address"
        }
      ],
      "name": "allowance",
      "outputs": [
        {
          "internalType": "uint256",
          "name": "",
          "type": "uint256"
        }
      ],
      "stateMutability": "view",
      "type": "function"
    },
    {
      "inputs": [
        {
          "internalType": "address",
          "name": "spender",
          "type": "address"
        },
        {
          "internalType": "uint256",
          "name": "amount",
          "type": "uint256"
        }
      ],
      "name": "approve",
      "outputs": [
        {
          "internalType": "bool",
          "name": "",
          "type": "bool"
        }
      ],
      "stateMutability": "nonpayable",
      "type": "function"
    },
    {
      "inputs": [
        {
          "internalType": "address",
          "name": "account",
          "type": "address"
        }
      ],
      "name": "balanceOf",
      "outputs": [
        {
          "internalType": "uint256",
          "name": "",
          "type": "uint256"
        }
      ],
      "stateMutability": "view",
      "type": "function"
    },
    {
      "inputs": [
        {
          "internalType": "uint256",
          "name": "amount",
          "type": "uint256"
        }
      ],
      "name": "burn",
      "outputs": [],
      "stateMutability": "nonpayable",
      "type": "function"
    },
    {
      "inputs": [
        {
          "internalType": "address",
          "name": "account",
          "type": "address"
        },
        {
          "internalType": "uint256",
          "name": "amount",
          "type": "uint256"
        }
      ],
      "name": "burnFrom",
      "outputs": [],
      "stateMutability": "nonpayable",
      "type": "function"
    },
    {
      "inputs": [],
      "name": "decimals",
      "outputs": [
        {
          "internalType": "uint8",
          "name": "",
          "type": "uint8"
        }
      ],
      "stateMutability": "view",
      "type": "function"
    },
    {
      "inputs": [
        {
          "internalType": "address",
          "name": "spender",
          "type": "address"
        },
        {
          "internalType": "uint256",
          "name": "subtractedValue",
          "type": "uint256"
        }
      ],
      "name": "decreaseAllowance",
      "outputs": [
        {
          "internalType": "bool",
          "name": "",
          "type": "bool"
        }
      ],
      "stateMutability": "nonpayable",
      "type": "function"
    },
    {
      "inputs": [
        {
          "internalType": "address",
          "name": "spender",
          "type": "address"
        },
        {
          "internalType": "uint256",
          "name": "addedValue",
          "type": "uint256"
        }
      ],
      "name": "increaseAllowance",
      "outputs": [
        {
          "internalType": "bool",
          "name": "",
          "type": "bool"
        }
      ],
      "stateMutability": "nonpayable",
      "type": "function"
    },
    {
      "inputs": [
        {
          "internalType": "address",
          "name": "to",
          "type": "address"
        },
        {
          "internalType": "uint256",
          "name": "amount",
          "type": "uint256"
        }
      ],
      "name": "mint",
      "outputs": [],
      "stateMutability": "nonpayable",
      "type": "function"
    },
    {
      "inputs": [],
      "name": "name",
      "outputs": [
        {
          "internalType": "string",
          "name": "",
          "type": "string"
        }
      ],
      "stateMutability": "view",
      "type": "function"
    },
    {
      "inputs": [],
      "name": "owner",
      "outputs": [
        {
          "internalType": "address",
          "name": "",
          "type": "address"
        }
      ],
      "stateMutability": "view",
      "type": "function"
    },
    {
      "inputs": [],
      "name": "renounceOwnership",
      "outputs": [],
      "stateMutability": "nonpayable",
      "type": "function"
    },
    {
      "inputs": [],
      "name": "symbol",
      "outputs": [
        {
          "internalType": "string",
          "name": "",
          "type": "string"
        }
      ],
      "stateMutability": "view",
      "type": "function"
    },
    {
      "inputs": [],
      "name": "totalSupply",
      "outputs": [
        {
          "internalType": "uint256",
          "name": "",
          "type": "uint256"
        }
      ],
      "stateMutability": "view",
      "type": "function"
    },
    {
      "inputs": [
        {
          "internalType": "address",
          "name": "to",
          "type": "address"
        },
        {
          "internalType": "uint256",
          "name": "amount",
          "type": "uint256"
        }
      ],
      "name": "transfer",
      "outputs": [
        {
          "internalType": "bool",
          "name": "",
          "type": "bool"
        }
      ],
      "stateMutability": "nonpayable",
      "type": "function"
    },
    {
      "inputs": [
        {
          "internalType": "address",
          "name": "from",
          "type": "address"
        },
        {
          "internalType": "address",
          "name": "to",
          "type": "address"
        },
        {
          "internalType": "uint256",
          "name": "amount",
          "type": "uint256"
        }
      ],
      "name": "transferFrom",
      "outputs": [
        {
          "internalType": "bool",
          "name": "",
          "type": "bool"
        }
      ],
      "stateMutability": "nonpayable",
      "type": "function"
    },
    {
      "inputs": [
        {
          "internalType": "address",
          "name": "newOwner",
          "type": "address"
        }
      ],
      "name": "transferOwnership",
      "outputs": [],
      "stateMutability": "nonpayable",
      "type": "function"
    }
  ],
  "bytecode": "0x60806040526012600a62000014919062000637565b640ba43b740062000026919062000688565b6006553480156200003657600080fd5b506040518060400160405280600581526020017f546f6b656e0000000000000000000000000000000000000000000000000000008152506040518060400160405280600381526020017f464c5000000000000000000000000000000000000000000000000000000000008152508160039081620000b4919062000943565b508060049081620000c6919062000943565b505050620000e9620000dd6200011460201b60201c565b6200011c60201b60201c565b620000fd33600654620001e260201b60201c565b6200010e336200034f60201b60201c565b62000c20565b600033905090565b6000600560009054906101000a900473ffffffffffffffffffffffffffffffffffffffff16905081600560006101000a81548173ffffffffffffffffffffffffffffffffffffffff021916908373ffffffffffffffffffffffffffffffffffffffff1602179055508173ffffffffffffffffffffffffffffffffffffffff168173ffffffffffffffffffffffffffffffffffffffff167f8be0079c531659141344cd1fd0a4f28419497f9722a3daafe3b4186f6b6457e060405160405180910390a35050565b600073ffffffffffffffffffffffffffffffffffffffff168273ffffffffffffffffffffffffffffffffffffffff160362000254576040517f08c379a00000000000000000000000000000000000000000000000000000000081526004016200024b9062000a8b565b60405180910390fd5b6200026860008383620003e560201b60201c565b80600260008282546200027c919062000aad565b92505081905550806000808473ffffffffffffffffffffffffffffffffffffffff1673ffffffffffffffffffffffffffffffffffffffff168152602001908152602001600020600082825401925050819055508173ffffffffffffffffffffffffffffffffffffffff16600073ffffffffffffffffffffffffffffffffffffffff167fddf252ad1be2c89b69c2b068fc378daa952ba7f163c4a11628f55a4df523b3ef836040516200032f919062000af9565b60405180910390a36200034b60008383620003ea60201b60201c565b5050565b6200035f620003ef60201b60201c565b600073ffffffffffffffffffffffffffffffffffffffff168173ffffffffffffffffffffffffffffffffffffffff1603620003d1576040517f08c379a0000000000000000000000000000000000000000000000000000000008152600401620003c89062000b8c565b60405180910390fd5b620003e2816200011c60201b60201c565b50565b505050565b505050565b620003ff6200011460201b60201c565b73ffffffffffffffffffffffffffffffffffffffff16620004256200048060201b60201c565b73ffffffffffffffffffffffffffffffffffffffff16146200047e576040517f08c379a0000000000000000000000000000000000000000000000000000000008152600401620004759062000bfe565b60405180910390fd5b565b6000600560009054906101000a900473ffffffffffffffffffffffffffffffffffffffff16905090565b7f4e487b7100000000000000000000000000000000000000000000000000000000600052601160045260246000fd5b60008160011c9050919050565b6000808291508390505b6001851115620005385780860481111562000510576200050f620004aa565b5b6001851615620005205780820291505b80810290506200053085620004d9565b9450620004f0565b94509492505050565b60008262000553576001905062000626565b8162000563576000905062000626565b81600181146200057c57600281146200058757620005bd565b600191505062000626565b60ff8411156200059c576200059b620004aa565b5b8360020a915084821115620005b657620005b5620004aa565b5b5062000626565b5060208310610133831016604e8410600b8410161715620005f75782820a905083811115620005f157620005f0620004aa565b5b62000626565b620006068484846001620004e6565b9250905081840481111562000620576200061f620004aa565b5b81810290505b9392505050565b6000819050919050565b600062000644826200062d565b915062000651836200062d565b9250620006807fffffffffffffffffffffffffffffffffffffffffffffffffffffffffffffffff848462000541565b905092915050565b600062000695826200062d565b9150620006a2836200062d565b9250828202620006b2816200062d565b91508282048414831517620006cc57620006cb620004aa565b5b5092915050565b600081519050919050565b7f4e487b7100000000000000000000000000000000000000000000000000000000600052604160045260246000fd5b7f4e487b7100000000000000000000000000000000000000000000000000000000600052602260045260246000fd5b600060028204905060018216806200075557607f821691505b6020821081036200076b576200076a6200070d565b5b50919050565b60008190508160005260206000209050919050565b60006020601f8301049050919050565b600082821b905092915050565b600060088302620007d57fffffffffffffffffffffffffffffffffffffffffffffffffffffffffffffffff8262000796565b620007e1868362000796565b95508019841693508086168417925050509392505050565b6000819050919050565b6000620008246200081e62000818846200062d565b620007f9565b6200062d565b9050919050565b6000819050919050565b620008408362000803565b620008586200084f826200082b565b848454620007a3565b825550505050565b600090565b6200086f62000860565b6200087c81848462000835565b505050565b5b81811015620008a4576200089860008262000865565b60018101905062000882565b5050565b601f821115620008f357620008bd8162000771565b620008c88462000786565b81016020851015620008d8578190505b620008f0620008e78562000786565b83018262000881565b50505b505050565b600082821c905092915050565b60006200091860001984600802620008f8565b1980831691505092915050565b600062000933838362000905565b9150826002028217905092915050565b6200094e82620006d3565b67ffffffffffffffff8111156200096a5762000969620006de565b5b6200097682546200073c565b62000983828285620008a8565b600060209050601f831160018114620009bb5760008415620009a6578287015190505b620009b2858262000925565b86555062000a22565b601f198416620009cb8662000771565b60005b82811015620009f557848901518255600182019150602085019450602081019050620009ce565b8683101562000a15578489015162000a11601f89168262000905565b8355505b6001600288020188555050505b505050505050565b600082825260208201905092915050565b7f45524332303a206d696e7420746f20746865207a65726f206164647265737300600082015250565b600062000a73601f8362000a2a565b915062000a808262000a3b565b602082019050919050565b6000602082019050818103600083015262000aa68162000a64565b9050919050565b600062000aba826200062d565b915062000ac7836200062d565b925082820190508082111562000ae25762000ae1620004aa565b5b92915050565b62000af3816200062d565b82525050565b600060208201905062000b10600083018462000ae8565b92915050565b7f4f776e61626c653a206e6577206f776e657220697320746865207a65726f206160008201527f6464726573730000000000000000000000000000000000000000000000000000602082015250565b600062000b7460268362000a2a565b915062000b818262000b16565b604082019050919050565b6000602082019050818103600083015262000ba78162000b65565b9050919050565b7f4f776e61626c653a2063616c6c6572206973206e6f7420746865206f776e6572600082015250565b600062000be660208362000a2a565b915062000bf38262000bae565b602082019050919050565b6000602082019050818103600083015262000c198162000bd7565b9050919050565b611c438062000c306000396000f3fe608060405234801561001057600080fd5b506004361061010b5760003560e01c806370a08231116100a257806395d89b411161007157806395d89b41146102a6578063a457c2d7146102c4578063a9059cbb146102f4578063dd62ed3e14610324578063f2fde38b146103545761010b565b806370a0823114610232578063715018a61461026257806379cc67901461026c5780638da5cb5b146102885761010b565b8063313ce567116100de578063313ce567146101ac57806339509351146101ca57806340c10f19146101fa57806342966c68146102165761010b565b806306fdde0314610110578063095ea7b31461012e57806318160ddd1461015e57806323b872dd1461017c575b600080fd5b610118610370565b60405161012591906111cf565b60405180910390f35b6101486004803603810190610143919061128a565b610402565b60405161015591906112e5565b60405180910390f35b610166610425565b604051610173919061130f565b60405180910390f35b6101966004803603810190610191919061132a565b61042f565b6040516101a391906112e5565b60405180910390f35b6101b461045e565b6040516101c19190611399565b60405180910390f35b6101e460048036038101906101df919061128a565b610467565b6040516101f191906112e5565b60405180910390f35b610214600480360381019061020f919061128a565b61049e565b005b610230600480360381019061022b91906113b4565b61050b565b005b61024c600480360381019061024791906113e1565b61051f565b604051610259919061130f565b60405180910390f35b61026a610567565b005b6102866004803603810190610281919061128a565b61057b565b005b61029061059b565b60405161029d919061141d565b60405180910390f35b6102ae6105c5565b6040516102bb91906111cf565b60405180910390f35b6102de60048036038101906102d9919061128a565b610657565b6040516102eb91906112e5565b60405180910390f35b61030e6004803603810190610309919061128a565b6106ce565b60405161031b91906112e5565b60405180910390f35b61033e60048036038101906103399190611438565b6106f1565b60405161034b919061130f565b60405180910390f35b61036e600480360381019061036991906113e1565b610778565b005b60606003805461037f906114a7565b80601f01602080910402602001604051908101604052809291908181526020018280546103ab906114a7565b80156103f85780601f106103cd576101008083540402835291602001916103f8565b820191906000526020600020905b8154815290600101906020018083116103db57829003601f168201915b5050505050905090565b60008061040d6107fb565b905061041a818585610803565b600191505092915050565b6000600254905090565b60008061043a6107fb565b90506104478582856109cc565b610452858585610a58565b60019150509392505050565b60006012905090565b6000806104726107fb565b905061049381858561048485896106f1565b61048e9190611507565b610803565b600191505092915050565b6104a6610cce565b600654816104b2610425565b6104bc9190611507565b11156104fd576040517f08c379a00000000000000000000000000000000000000000000000000000000081526004016104f490611587565b60405180910390fd5b6105078282610d4c565b5050565b61051c6105166107fb565b82610ea2565b50565b60008060008373ffffffffffffffffffffffffffffffffffffffff1673ffffffffffffffffffffffffffffffffffffffff168152602001908152602001600020549050919050565b61056f610cce565b610579600061106f565b565b61058d826105876107fb565b836109cc565b6105978282610ea2565b5050565b6000600560009054906101000a900473ffffffffffffffffffffffffffffffffffffffff16905090565b6060600480546105d4906114a7565b80601f0160208091040260200160405190810160405280929190818152602001828054610600906114a7565b801561064d5780601f106106225761010080835404028352916020019161064d565b820191906000526020600020905b81548152906001019060200180831161063057829003601f168201915b5050505050905090565b6000806106626107fb565b9050600061067082866106f1565b9050838110156106b5576040517f08c379a00000000000000000000000000000000000000000000000000000000081526004016106ac90611619565b60405180910390fd5b6106c28286868403610803565b60019250505092915050565b6000806106d96107fb565b90506106e6818585610a58565b600191505092915050565b6000600160008473ffffffffffffffffffffffffffffffffffffffff1673ffffffffffffffffffffffffffffffffffffffff16815260200190815260200160002060008373ffffffffffffffffffffffffffffffffffffffff1673ffffffffffffffffffffffffffffffffffffffff16815260200190815260200160002054905092915050565b610780610cce565b600073ffffffffffffffffffffffffffffffffffffffff168173ffffffffffffffffffffffffffffffffffffffff16036107ef576040517f08c379a00000000000000000000000000000000000000000000000000000000081526004016107e6906116ab565b60405180910390fd5b6107f88161106f565b50565b600033905090565b600073ffffffffffffffffffffffffffffffffffffffff168373ffffffffffffffffffffffffffffffffffffffff1603610872576040517f08c379a00000000000000000000000000000000000000000000000000000000081526004016108699061173d565b60405180910390fd5b600073ffffffffffffffffffffffffffffffffffffffff168273ffffffffffffffffffffffffffffffffffffffff16036108e1576040517f08c379a00000000000000000000000000000000000000000000000000000000081526004016108d8906117cf565b60405180910390fd5b80600160008573ffffffffffffffffffffffffffffffffffffffff1673ffffffffffffffffffffffffffffffffffffffff16815260200190815260200160002060008473ffffffffffffffffffffffffffffffffffffffff1673ffffffffffffffffffffffffffffffffffffffff168152602001908152602001600020819055508173ffffffffffffffffffffffffffffffffffffffff168373ffffffffffffffffffffffffffffffffffffffff167f8c5be1e5ebec7d5bd14f71427d1e84f3dd0314c0f7b2291e5b200ac8c7c3b925836040516109bf919061130f565b60405180910390a3505050565b60006109d884846106f1565b90507fffffffffffffffffffffffffffffffffffffffffffffffffffffffffffffffff8114610a525781811015610a44576040517f08c379a0000000000000000000000000000000000000000000000000000000008152600401610a3b9061183b565b60405180910390fd5b610a518484848403610803565b5b50505050565b600073ffffffffffffffffffffffffffffffffffffffff168373ffffffffffffffffffffffffffffffffffffffff1603610ac7576040517f08c379a0000000000000000000000000000000000000000000000000000000008152600401610abe906118cd565b60405180910390fd5b600073ffffffffffffffffffffffffffffffffffffffff168273ffffffffffffffffffffffffffffffffffffffff1603610b36576040517f08c379a0000000000000000000000000000000000000000000000000000000008152600401610b2d9061195f565b60405180910390fd5b610b41838383611135565b60008060008573ffffffffffffffffffffffffffffffffffffffff1673ffffffffffffffffffffffffffffffffffffffff16815260200190815260200160002054905081811015610bc7576040517f08c379a0000000000000000000000000000000000000000000000000000000008152600401610bbe906119f1565b60405180910390fd5b8181036000808673ffffffffffffffffffffffffffffffffffffffff1673ffffffffffffffffffffffffffffffffffffffff16815260200190815260200160002081905550816000808573ffffffffffffffffffffffffffffffffffffffff1673ffffffffffffffffffffffffffffffffffffffff168152602001908152602001600020600082825401925050819055508273ffffffffffffffffffffffffffffffffffffffff168473ffffffffffffffffffffffffffffffffffffffff167fddf252ad1be2c89b69c2b068fc378daa952ba7f163c4a11628f55a4df523b3ef84604051610cb5919061130f565b60405180910390a3610cc884848461113a565b50505050565b610cd66107fb565b73ffffffffffffffffffffffffffffffffffffffff16610cf461059b565b73ffffffffffffffffffffffffffffffffffffffff1614610d4a576040517f08c379a0000000000000000000000000000000000000000000000000000000008152600401610d4190611a5d565b60405180910390fd5b565b600073ffffffffffffffffffffffffffffffffffffffff168273ffffffffffffffffffffffffffffffffffffffff1603610dbb576040517f08c379a0000000000000000000000000000000000000000000000000000000008152600401610db290611ac9565b60405180910390fd5b610dc760008383611135565b8060026000828254610dd99190611507565b92505081905550806000808473ffffffffffffffffffffffffffffffffffffffff1673ffffffffffffffffffffffffffffffffffffffff168152602001908152602001600020600082825401925050819055508173ffffffffffffffffffffffffffffffffffffffff16600073ffffffffffffffffffffffffffffffffffffffff167fddf252ad1be2c89b69c2b068fc378daa952ba7f163c4a11628f55a4df523b3ef83604051610e8a919061130f565b60405180910390a3610e9e6000838361113a565b5050565b600073ffffffffffffffffffffffffffffffffffffffff168273ffffffffffffffffffffffffffffffffffffffff1603610f11576040517f08c379a0000000000000000000000000000000000000000000000000000000008152600401610f0890611b5b565b60405180910390fd5b610f1d82600083611135565b60008060008473ffffffffffffffffffffffffffffffffffffffff1673ffffffffffffffffffffffffffffffffffffffff16815260200190815260200160002054905081811015610fa3576040517f08c379a0000000000000000000000000000000000000000000000000000000008152600401610f9a90611bed565b60405180910390fd5b8181036000808573ffffffffffffffffffffffffffffffffffffffff1673ffffffffffffffffffffffffffffffffffffffff1681526020019081526020016000208190555081600260008282540392505081905550600073ffffffffffffffffffffffffffffffffffffffff168373ffffffffffffffffffffffffffffffffffffffff167fddf252ad1be2c89b69c2b068fc378daa952ba7f163c4a11628f55a4df523b3ef84604051611056919061130f565b60405180910390a361106a8360008461113a565b505050565b6000600560009054906101000a900473ffffffffffffffffffffffffffffffffffffffff16905081600560006101000a81548173ffffffffffffffffffffffffffffffffffffffff021916908373ffffffffffffffffffffffffffffffffffffffff1602179055508173ffffffffffffffffffffffffffffffffffffffff168173ffffffffffffffffffffffffffffffffffffffff167f8be0079c531659141344cd1fd0a4f28419497f9722a3daafe3b4186f6b6457e060405160405180910390a35050565b505050565b505050565b600081519050919050565b600082825260208201905092915050565b60005b8381101561117957808201518184015260208101905061115e565b60008484015250505050565b6000601f19601f8301169050919050565b60006111a18261113f565b6111ab818561114a565b93506111bb81856020860161115b565b6111c481611185565b840191505092915050565b600060208201905081810360008301526111e98184611196565b905092915050565b600080fd5b600073ffffffffffffffffffffffffffffffffffffffff82169050919050565b6000611221826111f6565b9050919050565b61123181611216565b811461123c57600080fd5b50565b60008135905061124e81611228565b92915050565b6000819050919050565b61126781611254565b811461127257600080fd5b50565b6000813590506112848161125e565b92915050565b600080604083850312156112a1576112a06111f1565b5b60006112af8582860161123f565b92505060206112c085828601611275565b9150509250929050565b60008115159050919050565b6112df816112ca565b82525050565b60006020820190506112fa60008301846112d6565b92915050565b61130981611254565b82525050565b60006020820190506113246000830184611300565b92915050565b600080600060608486031215611343576113426111f1565b5b60006113518682870161123f565b93505060206113628682870161123f565b925050604061137386828701611275565b9150509250925092565b600060ff82169050919050565b6113938161137d565b82525050565b60006020820190506113ae600083018461138a565b92915050565b6000602082840312156113ca576113c96111f1565b5b60006113d884828501611275565b91505092915050565b6000602082840312156113f7576113f66111f1565b5b60006114058482850161123f565b91505092915050565b61141781611216565b82525050565b6000602082019050611432600083018461140e565b92915050565b6000806040838503121561144f5761144e6111f1565b5b600061145d8582860161123f565b925050602061146e8582860161123f565b9150509250929050565b7f4e487b7100000000000000000000000000000000000000000000000000000000600052602260045260246000fd5b600060028204905060018216806114bf57607f821691505b6020821081036114d2576114d1611478565b5b50919050565b7f4e487b7100000000000000000000000000000000000000000000000000000000600052601160045260246000fd5b600061151282611254565b915061151d83611254565b9250828201905080821115611535576115346114d8565b5b92915050565b7f466c6f7070793a20000000000000000000000000000000000000000000000000600082015250565b600061157160088361114a565b915061157c8261153b565b602082019050919050565b600060208201905081810360008301526115a081611564565b9050919050565b7f45524332303a2064656372656173656420616c6c6f77616e63652062656c6f7760008201527f207a65726f000000000000000000000000000000000000000000000000000000602082015250565b600061160360258361114a565b915061160e826115a7565b604082019050919050565b60006020820190508181036000830152611632816115f6565b9050919050565b7f4f776e61626c653a206e6577206f776e657220697320746865207a65726f206160008201527f6464726573730000000000000000000000000000000000000000000000000000602082015250565b600061169560268361114a565b91506116a082611639565b604082019050919050565b600060208201905081810360008301526116c481611688565b9050919050565b7f45524332303a20617070726f76652066726f6d20746865207a65726f2061646460008201527f7265737300000000000000000000000000000000000000000000000000000000602082015250565b600061172760248361114a565b9150611732826116cb565b604082019050919050565b600060208201905081810360008301526117568161171a565b9050919050565b7f45524332303a20617070726f766520746f20746865207a65726f20616464726560008201527f7373000000000000000000000000000000000000000000000000000000000000602082015250565b60006117b960228361114a565b91506117c48261175d565b604082019050919050565b600060208201905081810360008301526117e8816117ac565b9050919050565b7f45524332303a20696e73756666696369656e7420616c6c6f77616e6365000000600082015250565b6000611825601d8361114a565b9150611830826117ef565b602082019050919050565b6000602082019050818103600083015261185481611818565b9050919050565b7f45524332303a207472616e736665722066726f6d20746865207a65726f20616460008201527f6472657373000000000000000000000000000000000000000000000000000000602082015250565b60006118b760258361114a565b91506118c28261185b565b604082019050919050565b600060208201905081810360008301526118e6816118aa565b9050919050565b7f45524332303a207472616e7366657220746f20746865207a65726f206164647260008201527f6573730000000000000000000000000000000000000000000000000000000000602082015250565b600061194960238361114a565b9150611954826118ed565b604082019050919050565b600060208201905081810360008301526119788161193c565b9050919050565b7f45524332303a207472616e7366657220616d6f756e742065786365656473206260008201527f616c616e63650000000000000000000000000000000000000000000000000000602082015250565b60006119db60268361114a565b91506119e68261197f565b604082019050919050565b60006020820190508181036000830152611a0a816119ce565b9050919050565b7f4f776e61626c653a2063616c6c6572206973206e6f7420746865206f776e6572600082015250565b6000611a4760208361114a565b9150611a5282611a11565b602082019050919050565b60006020820190508181036000830152611a7681611a3a565b9050919050565b7f45524332303a206d696e7420746f20746865207a65726f206164647265737300600082015250565b6000611ab3601f8361114a565b9150611abe82611a7d565b602082019050919050565b60006020820190508181036000830152611ae281611aa6565b9050919050565b7f45524332303a206275726e2066726f6d20746865207a65726f2061646472657360008201527f7300000000000000000000000000000000000000000000000000000000000000602082015250565b6000611b4560218361114a565b9150611b5082611ae9565b604082019050919050565b60006020820190508181036000830152611b7481611b38565b9050919050565b7f45524332303a206275726e20616d6f756e7420657863656564732062616c616e60008201527f6365000000000000000000000000000000000000000000000000000000000000602082015250565b6000611bd760228361114a565b9150611be282611b7b565b604082019050919050565b60006020820190508181036000830152611c0681611bca565b905091905056fea2646970667358221220b660ec8f8d041f71c0f354dd89ff922665006426878cbf59d06679984384e5f964736f6c63430008120033",
  "linkReferences": {},
  "deployedLinkReferences": {}
}