{
    "contractName": "Array",
    "abi": [
        {
            "inputs": [
                {
                    "internalType": "string",
                    "name": "name",
                    "type": "string"
                },
                {
                    "internalType": "uint256",
                    "name": "age",
                    "type": "uint256"
                }
            ],
            "name": "createUser",
            "outputs": [],
            "stateMutability": "nonpayable",
            "type": "function"
        },
        {
            "inputs": [
                {
                    "internalType": "address",
                    "name": "_user",
                    "type": "address"
                }
            ],
            "name": "getUser",
            "outputs": [
                {
                    "internalType": "string",
                    "name": "",
                    "type": "string"
                },
                {
                    "internalType": "uint256",
                    "name": "",
                    "type": "uint256"
                }
            ],
            "stateMutability": "view",
            "type": "function"
        },
        {
            "inputs": [
                {
                    "internalType": "address",
                    "name": "",
                    "type": "address"
                }
            ],
            "name": "users",
            "outputs": [
                {
                    "internalType": "contract User",
                    "name": "",
                    "type": "address"
                }
            ],
            "stateMutability": "view",
            "type": "function"
        }
    ],
    "bytecode": "608060405234801561001057600080fd5b506108b1806100206000396000f3fe608060405234801561001057600080fd5b50600436106100415760003560e01c8063121ef243146100465780636f77926b1461005b578063a87430ba14610085575b600080fd5b61005961005436600461029d565b6100c6565b005b61006e61006936600461031f565b610130565b60405161007c929190610373565b60405180910390f35b6100ae61009336600461031f565b6000602081905290815260409020546001600160a01b031681565b6040516001600160a01b03909116815260200161007c565b600082826040516100d690610221565b6100e1929190610373565b604051809103906000f0801580156100fd573d6000803e3d6000fd5b5033600090815260208190526040902080546001600160a01b0319166001600160a01b0392909216919091179055505050565b6001600160a01b038082166000908152602081905260408082205481516306fdde0360e01b81529151606094919091169182916306fdde039160048082019287929091908290030181865afa15801561018d573d6000803e3d6000fd5b505050506040513d6000823e601f3d908101601f191682016040526101b591908101906103ae565b816001600160a01b031663262a9dff6040518163ffffffff1660e01b8152600401602060405180830381865afa1580156101f3573d6000803e3d6000fd5b505050506040513d601f19601f820116820180604052508101906102179190610425565b9250925050915091565b61043d8061043f83390190565b634e487b7160e01b600052604160045260246000fd5b604051601f8201601f1916810167ffffffffffffffff8111828210171561026d5761026d61022e565b604052919050565b600067ffffffffffffffff82111561028f5761028f61022e565b50601f01601f191660200190565b600080604083850312156102b057600080fd5b823567ffffffffffffffff8111156102c757600080fd5b8301601f810185136102d857600080fd5b80356102eb6102e682610275565b610244565b81815286602083850101111561030057600080fd5b8160208401602083013760006020928201830152969401359450505050565b60006020828403121561033157600080fd5b81356001600160a01b038116811461034857600080fd5b9392505050565b60005b8381101561036a578181015183820152602001610352565b50506000910152565b604081526000835180604084015261039281606085016020880161034f565b602083019390935250601f91909101601f191601606001919050565b6000602082840312156103c057600080fd5b815167ffffffffffffffff8111156103d757600080fd5b8201601f810184136103e857600080fd5b80516103f66102e682610275565b81815285602083850101111561040b57600080fd5b61041c82602083016020860161034f565b95945050505050565b60006020828403121561043757600080fd5b505191905056fe608060405234801561001057600080fd5b5060405161043d38038061043d83398101604081905261002f9161005b565b600061003b83826101b3565b5060015550610272565b634e487b7160e01b600052604160045260246000fd5b6000806040838503121561006e57600080fd5b82516001600160401b038082111561008557600080fd5b818501915085601f83011261009957600080fd5b8151818111156100ab576100ab610045565b604051601f8201601f19908116603f011681019083821181831017156100d3576100d3610045565b816040528281526020935088848487010111156100ef57600080fd5b600091505b8282101561011157848201840151818301850152908301906100f4565b6000928101840192909252509401519395939450505050565b600181811c9082168061013e57607f821691505b60208210810361015e57634e487b7160e01b600052602260045260246000fd5b50919050565b601f8211156101ae57600081815260208120601f850160051c8101602086101561018b5750805b601f850160051c820191505b818110156101aa57828155600101610197565b5050505b505050565b81516001600160401b038111156101cc576101cc610045565b6101e0816101da845461012a565b84610164565b602080601f83116001811461021557600084156101fd5750858301515b600019600386901b1c1916600185901b1785556101aa565b600085815260208120601f198616915b8281101561024457888601518255948401946001909101908401610225565b50858210156102625787850151600019600388901b60f8161c191681555b5050505050600190811b01905550565b6101bc806102816000396000f3fe608060405234801561001057600080fd5b50600436106100365760003560e01c806306fdde031461003b578063262a9dff14610059575b600080fd5b610043610070565b60405161005091906100fe565b60405180910390f35b61006260015481565b604051908152602001610050565b6000805461007d9061014c565b80601f01602080910402602001604051908101604052809291908181526020018280546100a99061014c565b80156100f65780601f106100cb576101008083540402835291602001916100f6565b820191906000526020600020905b8154815290600101906020018083116100d957829003601f168201915b505050505081565b600060208083528351808285015260005b8181101561012b5785810183015185820160400152820161010f565b506000604082860101526040601f19601f8301168501019250505092915050565b600181811c9082168061016057607f821691505b60208210810361018057634e487b7160e01b600052602260045260246000fd5b5091905056fea26469706673582212200e13ad2a2a8f836a6ccbb6d57c0c3e0266dee6833c06a6144a14551ebe57319c64736f6c63430008130033a2646970667358221220d59661d5d01318a563992927355edb0854a30d3bd385f895f028851e8d23eb3064736f6c63430008130033",
    "sourcePath": "/home/aurora/Desktop/Solidity/contracts/ContractInterations.sol",
    "compiler": {
        "name": "solc",
        "version": "0.8.19+commit.7dd6d404"
    },
    "functionHashes": {
        "createUser(string,uint256)": "121ef243",
        "getUser(address)": "6f77926b",
        "users(address)": "a87430ba"
    },
    "gasEstimates": {
        "creation": {
            "codeDepositCost": "445000",
            "executionCost": "480",
            "totalCost": "445480"
        },
        "external": {
            "createUser(string,uint256)": "infinite",
            "getUser(address)": "infinite",
            "users(address)": "2548"
        }
    }
}