{
    "contractName": "B",
    "abi": [
        {
            "inputs": [],
            "stateMutability": "nonpayable",
            "type": "constructor"
        },
        {
            "inputs": [],
            "name": "h",
            "outputs": [
                {
                    "internalType": "uint256",
                    "name": "",
                    "type": "uint256"
                }
            ],
            "stateMutability": "view",
            "type": "function"
        },
        {
            "inputs": [],
            "name": "n",
            "outputs": [
                {
                    "internalType": "uint256",
                    "name": "",
                    "type": "uint256"
                }
            ],
            "stateMutability": "view",
            "type": "function"
        }
    ],
    "bytecode": "6080604052348015600f57600080fd5b50606460005560c8600155608f806100286000396000f3fe6080604052348015600f57600080fd5b506004361060325760003560e01c80632e52d606146037578063b8c9d365146051575b600080fd5b603f60005481565b60405190815260200160405180910390f35b603f6001548156fea2646970667358221220fcded20059509745a21ffbdd5192eae1b73c013f8d9f4b64a41ee8da5ae7bf4464736f6c63430008130033",
    "sourcePath": "/home/aurora/Desktop/Solidity/contracts/Array.sol",
    "compiler": {
        "name": "solc",
        "version": "0.8.19+commit.7dd6d404"
    },
    "functionHashes": {
        "h()": "b8c9d365",
        "n()": "2e52d606"
    },
    "gasEstimates": {
        "creation": {
            "codeDepositCost": "28600",
            "executionCost": "44293",
            "totalCost": "72893"
        },
        "external": {
            "h()": "2283",
            "n()": "2261"
        }
    }
}