{
    "contractName": "ETH",
    "abi": [
        {
            "inputs": [
                {
                    "internalType": "uint256",
                    "name": "",
                    "type": "uint256"
                }
            ],
            "name": "users",
            "outputs": [
                {
                    "internalType": "uint256",
                    "name": "id",
                    "type": "uint256"
                },
                {
                    "internalType": "string",
                    "name": "name",
                    "type": "string"
                },
                {
                    "internalType": "uint256",
                    "name": "balance",
                    "type": "uint256"
                },
                {
                    "internalType": "uint256",
                    "name": "price",
                    "type": "uint256"
                }
            ],
            "stateMutability": "view",
            "type": "function"
        }
    ],
    "bytecode": "608060405234801561001057600080fd5b5061020d806100206000396000f3fe608060405234801561001057600080fd5b506004361061002b5760003560e01c8063365b98b214610030575b600080fd5b61004361003e366004610120565b61005c565b6040516100539493929190610139565b60405180910390f35b6000818154811061006c57600080fd5b600091825260209091206004909102018054600182018054919350906100919061019d565b80601f01602080910402602001604051908101604052809291908181526020018280546100bd9061019d565b801561010a5780601f106100df5761010080835404028352916020019161010a565b820191906000526020600020905b8154815290600101906020018083116100ed57829003601f168201915b5050505050908060020154908060030154905084565b60006020828403121561013257600080fd5b5035919050565b84815260006020608081840152855180608085015260005b8181101561016d5787810183015185820160a001528201610151565b50600060a0828601015260a0601f19601f8301168501019250505083604083015282606083015295945050505050565b600181811c908216806101b157607f821691505b6020821081036101d157634e487b7160e01b600052602260045260246000fd5b5091905056fea26469706673582212203d9af966f9daa674298a1adf7df73fdd65ba505b6e73ddbcf0f4a23ec5f1cbb064736f6c63430008130033",
    "sourcePath": "/home/aurora/Desktop/Solidity/contracts/Array.sol",
    "compiler": {
        "name": "solc",
        "version": "0.8.19+commit.7dd6d404"
    },
    "functionHashes": {
        "users(uint256)": "365b98b2"
    },
    "gasEstimates": {
        "creation": {
            "codeDepositCost": "105000",
            "executionCost": "153",
            "totalCost": "105153"
        },
        "external": {
            "users(uint256)": "infinite"
        }
    }
}