{
    "contractName": "Parent",
    "abi": [
        {
            "inputs": [
                {
                    "internalType": "uint256",
                    "name": "_id",
                    "type": "uint256"
                },
                {
                    "internalType": "string",
                    "name": "_name",
                    "type": "string"
                }
            ],
            "name": "addUser",
            "outputs": [],
            "stateMutability": "nonpayable",
            "type": "function"
        },
        {
            "inputs": [
                {
                    "internalType": "uint256",
                    "name": "",
                    "type": "uint256"
                }
            ],
            "name": "users",
            "outputs": [
                {
                    "internalType": "contract User",
                    "name": "",
                    "type": "address"
                }
            ],
            "stateMutability": "view",
            "type": "function"
        }
    ],
    "bytecode": "608060405234801561001057600080fd5b5061057d806100206000396000f3fe608060405234801561001057600080fd5b50600436106100365760003560e01c8063365b98b21461003b578063d51af2bf1461006a575b600080fd5b61004e610049366004610140565b61007f565b6040516001600160a01b03909116815260200160405180910390f35b61007d61007836600461016f565b6100a9565b005b6000818154811061008f57600080fd5b6000918252602090912001546001600160a01b0316905081565b600082826040516100b990610133565b6100c492919061022a565b604051809103906000f0801580156100e0573d6000803e3d6000fd5b50600080546001810182559080527f290decd9548b62a8d60345a988386fc84ba6bc95484008f6362f93160ef3e5630180546001600160a01b0319166001600160a01b0392909216919091179055505050565b6102c78061028183390190565b60006020828403121561015257600080fd5b5035919050565b634e487b7160e01b600052604160045260246000fd5b6000806040838503121561018257600080fd5b82359150602083013567ffffffffffffffff808211156101a157600080fd5b818501915085601f8301126101b557600080fd5b8135818111156101c7576101c7610159565b604051601f8201601f19908116603f011681019083821181831017156101ef576101ef610159565b8160405282815288602084870101111561020857600080fd5b8260208601602083013760006020848301015280955050505050509250929050565b82815260006020604081840152835180604085015260005b8181101561025e57858101830151858201606001528201610242565b506000606082860101526060601f19601f83011685010192505050939250505056fe608060405234801561001057600080fd5b506040516102c73803806102c783398101604081905261002f9161005e565b6000829055600161004082826101bb565b50505061027a565b634e487b7160e01b600052604160045260246000fd5b6000806040838503121561007157600080fd5b8251602080850151919350906001600160401b038082111561009257600080fd5b818601915086601f8301126100a657600080fd5b8151818111156100b8576100b8610048565b604051601f8201601f19908116603f011681019083821181831017156100e0576100e0610048565b8160405282815289868487010111156100f857600080fd5b600093505b8284101561011a57848401860151818501870152928501926100fd565b60008684830101528096505050505050509250929050565b600181811c9082168061014657607f821691505b60208210810361016657634e487b7160e01b600052602260045260246000fd5b50919050565b601f8211156101b657600081815260208120601f850160051c810160208610156101935750805b601f850160051c820191505b818110156101b25782815560010161019f565b5050505b505050565b81516001600160401b038111156101d4576101d4610048565b6101e8816101e28454610132565b8461016c565b602080601f83116001811461021d57600084156102055750858301515b600019600386901b1c1916600185901b1785556101b2565b600085815260208120601f198616915b8281101561024c5788860151825594840194600190910190840161022d565b508582101561026a5787850151600019600388901b60f8161c191681555b5050505050600190811b01905550565b603f806102886000396000f3fe6080604052600080fdfea2646970667358221220af1e9d35cfdab757a249ccdccb9550e28ef416edbc6777021db95223f2b0ef7964736f6c63430008130033a2646970667358221220b19931be73e6cbef9de5903674a3251ce912e47dd35e1c1f941fab3027d329f464736f6c63430008130033",
    "sourcePath": "/home/aurora/Desktop/Solidity/contracts/Array.sol",
    "compiler": {
        "name": "solc",
        "version": "0.8.19+commit.7dd6d404"
    },
    "functionHashes": {
        "addUser(uint256,string)": "d51af2bf",
        "users(uint256)": "365b98b2"
    },
    "gasEstimates": {
        "creation": {
            "codeDepositCost": "281000",
            "executionCost": "318",
            "totalCost": "281318"
        },
        "external": {
            "addUser(uint256,string)": "infinite",
            "users(uint256)": "4580"
        }
    }
}