{
    "contractName": "C",
    "abi": [
        {
            "inputs": [
                {
                    "internalType": "uint256",
                    "name": "id",
                    "type": "uint256"
                },
                {
                    "internalType": "string",
                    "name": "name",
                    "type": "string"
                },
                {
                    "internalType": "uint256",
                    "name": "balance",
                    "type": "uint256"
                }
            ],
            "name": "updateUser",
            "outputs": [
                {
                    "components": [
                        {
                            "internalType": "uint256",
                            "name": "id",
                            "type": "uint256"
                        },
                        {
                            "internalType": "string",
                            "name": "name",
                            "type": "string"
                        },
                        {
                            "internalType": "uint256",
                            "name": "balance",
                            "type": "uint256"
                        }
                    ],
                    "internalType": "struct A.User",
                    "name": "updated",
                    "type": "tuple"
                }
            ],
            "stateMutability": "nonpayable",
            "type": "function"
        },
        {
            "inputs": [
                {
                    "internalType": "uint256",
                    "name": "",
                    "type": "uint256"
                }
            ],
            "name": "users",
            "outputs": [
                {
                    "internalType": "uint256",
                    "name": "id",
                    "type": "uint256"
                },
                {
                    "internalType": "string",
                    "name": "name",
                    "type": "string"
                },
                {
                    "internalType": "uint256",
                    "name": "balance",
                    "type": "uint256"
                }
            ],
            "stateMutability": "view",
            "type": "function"
        }
    ],
    "bytecode": "608060405234801561001057600080fd5b5061064a806100206000396000f3fe608060405234801561001057600080fd5b50600436106100365760003560e01c8063365b98b21461003b578063b7787de914610066575b600080fd5b61004e6100493660046102f0565b610086565b60405161005d9392919061034f565b60405180910390f35b61007961007436600461038e565b610144565b60405161005d9190610452565b6000818154811061009657600080fd5b600091825260209091206003909102018054600182018054919350906100bb9061048e565b80601f01602080910402602001604051908101604052809291908181526020018280546100e79061048e565b80156101345780601f1061010957610100808354040283529160200191610134565b820191906000526020600020905b81548152906001019060200180831161011757829003601f168201915b5050505050908060020154905083565b61016860405180606001604052806000815260200160608152602001600081525090565b60005b6000548110156102e75760008181548110610188576101886104c8565b90600052602060002090600302016000015485036102d55783600082815481106101b4576101b46104c8565b906000526020600020906003020160010190816101d1919061052d565b5082600082815481106101e6576101e66104c8565b9060005260206000209060030201600201819055506000818154811061020e5761020e6104c8565b9060005260206000209060030201604051806060016040529081600082015481526020016001820180546102419061048e565b80601f016020809104026020016040519081016040528092919081815260200182805461026d9061048e565b80156102ba5780601f1061028f576101008083540402835291602001916102ba565b820191906000526020600020905b81548152906001019060200180831161029d57829003601f168201915b505050505081526020016002820154815250509150506102e9565b806102df816105ed565b91505061016b565b505b9392505050565b60006020828403121561030257600080fd5b5035919050565b6000815180845260005b8181101561032f57602081850181015186830182015201610313565b506000602082860101526020601f19601f83011685010191505092915050565b8381526060602082015260006103686060830185610309565b9050826040830152949350505050565b634e487b7160e01b600052604160045260246000fd5b6000806000606084860312156103a357600080fd5b83359250602084013567ffffffffffffffff808211156103c257600080fd5b818601915086601f8301126103d657600080fd5b8135818111156103e8576103e8610378565b604051601f8201601f19908116603f0116810190838211818310171561041057610410610378565b8160405282815289602084870101111561042957600080fd5b826020860160208301376000602084830101528096505050505050604084013590509250925092565b602081528151602082015260006020830151606060408401526104786080840182610309565b9050604084015160608401528091505092915050565b600181811c908216806104a257607f821691505b6020821081036104c257634e487b7160e01b600052602260045260246000fd5b50919050565b634e487b7160e01b600052603260045260246000fd5b601f82111561052857600081815260208120601f850160051c810160208610156105055750805b601f850160051c820191505b8181101561052457828155600101610511565b5050505b505050565b815167ffffffffffffffff81111561054757610547610378565b61055b81610555845461048e565b846104de565b602080601f83116001811461059057600084156105785750858301515b600019600386901b1c1916600185901b178555610524565b600085815260208120601f198616915b828110156105bf578886015182559484019460019091019084016105a0565b50858210156105dd5787850151600019600388901b60f8161c191681555b5050505050600190811b01905550565b60006001820161060d57634e487b7160e01b600052601160045260246000fd5b506001019056fea2646970667358221220c6526ced27b6879358927113145a1b2e15103ecdc267746791ad8301ccb08cf264736f6c63430008130033",
    "sourcePath": "/home/aurora/Desktop/Solidity/contracts/Array.sol",
    "compiler": {
        "name": "solc",
        "version": "0.8.19+commit.7dd6d404"
    },
    "functionHashes": {
        "updateUser(uint256,string,uint256)": "b7787de9",
        "users(uint256)": "365b98b2"
    },
    "gasEstimates": {
        "creation": {
            "codeDepositCost": "322000",
            "executionCost": "362",
            "totalCost": "322362"
        },
        "external": {
            "updateUser(uint256,string,uint256)": "infinite",
            "users(uint256)": "infinite"
        }
    }
}