{
    "contractName": "GuessTheMagicWord",
    "abi": [
        {
            "inputs": [],
            "name": "answer",
            "outputs": [
                {
                    "internalType": "bytes32",
                    "name": "",
                    "type": "bytes32"
                }
            ],
            "stateMutability": "view",
            "type": "function"
        },
        {
            "inputs": [
                {
                    "internalType": "string",
                    "name": "_word",
                    "type": "string"
                }
            ],
            "name": "guess",
            "outputs": [
                {
                    "internalType": "bool",
                    "name": "",
                    "type": "bool"
                }
            ],
            "stateMutability": "view",
            "type": "function"
        }
    ],
    "bytecode": "60806040527f60298f78cc0b47170ba79c10aa3851d7648bd96f2f8e46a19dbc777c36fb0c0060005534801561003457600080fd5b506101d9806100446000396000f3fe608060405234801561001057600080fd5b50600436106100365760003560e01c80634eee59b31461003b57806385bb7d6914610063575b600080fd5b61004e6100493660046100c3565b61007a565b60405190151581526020015b60405180910390f35b61006c60005481565b60405190815260200161005a565b600080548260405160200161008f9190610174565b60405160208183030381529060405280519060200120149050919050565b634e487b7160e01b600052604160045260246000fd5b6000602082840312156100d557600080fd5b813567ffffffffffffffff808211156100ed57600080fd5b818401915084601f83011261010157600080fd5b813581811115610113576101136100ad565b604051601f8201601f19908116603f0116810190838211818310171561013b5761013b6100ad565b8160405282815287602084870101111561015457600080fd5b826020860160208301376000928101602001929092525095945050505050565b6000825160005b81811015610195576020818601810151858301520161017b565b50600092019182525091905056fea2646970667358221220a8de07ad29805e208961ac5d6d6b40debdf8e5daffe1cb5de4b6a1fa6dbd282864736f6c63430008130033",
    "sourcePath": "/home/aurora/Desktop/Solidity/contracts/Keccak256.sol",
    "compiler": {
        "name": "solc",
        "version": "0.8.19+commit.7dd6d404"
    },
    "functionHashes": {
        "answer()": "85bb7d69",
        "guess(string)": "4eee59b3"
    },
    "gasEstimates": {
        "creation": {
            "codeDepositCost": "94600",
            "executionCost": "22247",
            "totalCost": "116847"
        },
        "external": {
            "answer()": "2295",
            "guess(string)": "infinite"
        }
    }
}