{
    "contractName": "HashFunction",
    "abi": [
        {
            "inputs": [
                {
                    "internalType": "string",
                    "name": "_text",
                    "type": "string"
                },
                {
                    "internalType": "string",
                    "name": "_anotherText",
                    "type": "string"
                }
            ],
            "name": "collision",
            "outputs": [
                {
                    "internalType": "bytes32",
                    "name": "",
                    "type": "bytes32"
                }
            ],
            "stateMutability": "pure",
            "type": "function"
        },
        {
            "inputs": [
                {
                    "internalType": "string",
                    "name": "_text",
                    "type": "string"
                },
                {
                    "internalType": "uint256",
                    "name": "_num",
                    "type": "uint256"
                },
                {
                    "internalType": "address",
                    "name": "_addr",
                    "type": "address"
                }
            ],
            "name": "hash",
            "outputs": [
                {
                    "internalType": "bytes32",
                    "name": "",
                    "type": "bytes32"
                }
            ],
            "stateMutability": "pure",
            "type": "function"
        }
    ],
    "bytecode": "608060405234801561001057600080fd5b506102fd806100206000396000f3fe608060405234801561001057600080fd5b50600436106100365760003560e01c80635dda416e1461003b5780637b7fb98214610060575b600080fd5b61004e61004936600461017f565b610073565b60405190815260200160405180910390f35b61004e61006e3660046101e6565b6100a9565b600083838360405160200161008a9392919061027a565b6040516020818303038152906040528051906020012090509392505050565b600082826040516020016100be9291906102aa565b60405160208183030381529060405280519060200120905092915050565b634e487b7160e01b600052604160045260246000fd5b600082601f83011261010357600080fd5b813567ffffffffffffffff8082111561011e5761011e6100dc565b604051601f8301601f19908116603f01168101908282118183101715610146576101466100dc565b8160405283815286602085880101111561015f57600080fd5b836020870160208301376000602085830101528094505050505092915050565b60008060006060848603121561019457600080fd5b833567ffffffffffffffff8111156101ab57600080fd5b6101b7868287016100f2565b9350506020840135915060408401356001600160a01b03811681146101db57600080fd5b809150509250925092565b600080604083850312156101f957600080fd5b823567ffffffffffffffff8082111561021157600080fd5b61021d868387016100f2565b9350602085013591508082111561023357600080fd5b50610240858286016100f2565b9150509250929050565b6000815160005b8181101561026b5760208185018101518683015201610251565b50600093019283525090919050565b6000610286828661024a565b938452505060601b6bffffffffffffffffffffffff19166020820152603401919050565b60006102bf6102b9838661024a565b8461024a565b94935050505056fea264697066735822122041752102d9ee3f15e18fecb54932347e6043e5083967873a923ecea1063818d564736f6c63430008130033",
    "sourcePath": "/home/aurora/Desktop/Solidity/contracts/Keccak256.sol",
    "compiler": {
        "name": "solc",
        "version": "0.8.19+commit.7dd6d404"
    },
    "functionHashes": {
        "collision(string,string)": "7b7fb982",
        "hash(string,uint256,address)": "5dda416e"
    },
    "gasEstimates": {
        "creation": {
            "codeDepositCost": "153000",
            "executionCost": "196",
            "totalCost": "153196"
        },
        "external": {
            "collision(string,string)": "infinite",
            "hash(string,uint256,address)": "infinite"
        }
    }
}