{
    "contractName": "User",
    "abi": [
        {
            "inputs": [
                {
                    "internalType": "string",
                    "name": "_name",
                    "type": "string"
                },
                {
                    "internalType": "uint256",
                    "name": "_age",
                    "type": "uint256"
                }
            ],
            "stateMutability": "nonpayable",
            "type": "constructor"
        },
        {
            "inputs": [],
            "name": "age",
            "outputs": [
                {
                    "internalType": "uint256",
                    "name": "",
                    "type": "uint256"
                }
            ],
            "stateMutability": "view",
            "type": "function"
        },
        {
            "inputs": [],
            "name": "name",
            "outputs": [
                {
                    "internalType": "string",
                    "name": "",
                    "type": "string"
                }
            ],
            "stateMutability": "view",
            "type": "function"
        }
    ],
    "bytecode": "608060405234801561001057600080fd5b5060405161043d38038061043d83398101604081905261002f9161005b565b600061003b83826101b3565b5060015550610272565b634e487b7160e01b600052604160045260246000fd5b6000806040838503121561006e57600080fd5b82516001600160401b038082111561008557600080fd5b818501915085601f83011261009957600080fd5b8151818111156100ab576100ab610045565b604051601f8201601f19908116603f011681019083821181831017156100d3576100d3610045565b816040528281526020935088848487010111156100ef57600080fd5b600091505b8282101561011157848201840151818301850152908301906100f4565b6000928101840192909252509401519395939450505050565b600181811c9082168061013e57607f821691505b60208210810361015e57634e487b7160e01b600052602260045260246000fd5b50919050565b601f8211156101ae57600081815260208120601f850160051c8101602086101561018b5750805b601f850160051c820191505b818110156101aa57828155600101610197565b5050505b505050565b81516001600160401b038111156101cc576101cc610045565b6101e0816101da845461012a565b84610164565b602080601f83116001811461021557600084156101fd5750858301515b600019600386901b1c1916600185901b1785556101aa565b600085815260208120601f198616915b8281101561024457888601518255948401946001909101908401610225565b50858210156102625787850151600019600388901b60f8161c191681555b5050505050600190811b01905550565b6101bc806102816000396000f3fe608060405234801561001057600080fd5b50600436106100365760003560e01c806306fdde031461003b578063262a9dff14610059575b600080fd5b610043610070565b60405161005091906100fe565b60405180910390f35b61006260015481565b604051908152602001610050565b6000805461007d9061014c565b80601f01602080910402602001604051908101604052809291908181526020018280546100a99061014c565b80156100f65780601f106100cb576101008083540402835291602001916100f6565b820191906000526020600020905b8154815290600101906020018083116100d957829003601f168201915b505050505081565b600060208083528351808285015260005b8181101561012b5785810183015185820160400152820161010f565b506000604082860101526040601f19601f8301168501019250505092915050565b600181811c9082168061016057607f821691505b60208210810361018057634e487b7160e01b600052602260045260246000fd5b5091905056fea26469706673582212200e13ad2a2a8f836a6ccbb6d57c0c3e0266dee6833c06a6144a14551ebe57319c64736f6c63430008130033",
    "sourcePath": "/home/aurora/Desktop/Solidity/contracts/ContractInterations.sol",
    "compiler": {
        "name": "solc",
        "version": "0.8.19+commit.7dd6d404"
    },
    "functionHashes": {
        "age()": "262a9dff",
        "name()": "06fdde03"
    },
    "gasEstimates": {
        "creation": {
            "codeDepositCost": "88800",
            "executionCost": "infinite",
            "totalCost": "infinite"
        },
        "external": {
            "age()": "2295",
            "name()": "infinite"
        }
    }
}